{
  "_format": "hh-sol-artifact-1",
  "contractName": "HundredVesting",
  "sourceName": "contracts/HundredVesting.sol",
  "abi": [
    {
      "inputs": [
        {
          "internalType": "contract IERC20",
          "name": "hundred",
          "type": "address"
        },
        {
          "internalType": "uint256",
          "name": "period",
          "type": "uint256"
        }
      ],
      "stateMutability": "nonpayable",
      "type": "constructor"
    },
    {
      "anonymous": false,
      "inputs": [
        {
          "indexed": true,
          "internalType": "address",
          "name": "previousOwner",
          "type": "address"
        },
        {
          "indexed": true,
          "internalType": "address",
          "name": "newOwner",
          "type": "address"
        }
      ],
      "name": "OwnershipTransferred",
      "type": "event"
    },
    {
      "inputs": [],
      "name": "Hundred",
      "outputs": [
        {
          "internalType": "contract IERC20",
          "name": "",
          "type": "address"
        }
      ],
      "stateMutability": "view",
      "type": "function"
    },
    {
      "inputs": [
        {
          "internalType": "address",
          "name": "vester",
          "type": "address"
        }
      ],
      "name": "claim",
      "outputs": [],
      "stateMutability": "nonpayable",
      "type": "function"
    },
    {
      "inputs": [
        {
          "internalType": "address",
          "name": "vester",
          "type": "address"
        }
      ],
      "name": "getClaimableAmount",
      "outputs": [
        {
          "internalType": "uint256",
          "name": "",
          "type": "uint256"
        }
      ],
      "stateMutability": "view",
      "type": "function"
    },
    {
      "inputs": [
        {
          "internalType": "address",
          "name": "vester",
          "type": "address"
        }
      ],
      "name": "getClaimedAmount",
      "outputs": [
        {
          "internalType": "uint256",
          "name": "",
          "type": "uint256"
        }
      ],
      "stateMutability": "view",
      "type": "function"
    },
    {
      "inputs": [
        {
          "internalType": "address",
          "name": "vester",
          "type": "address"
        }
      ],
      "name": "getVestedAmount",
      "outputs": [
        {
          "internalType": "uint256",
          "name": "",
          "type": "uint256"
        }
      ],
      "stateMutability": "view",
      "type": "function"
    },
    {
      "inputs": [],
      "name": "owner",
      "outputs": [
        {
          "internalType": "address",
          "name": "",
          "type": "address"
        }
      ],
      "stateMutability": "view",
      "type": "function"
    },
    {
      "inputs": [],
      "name": "renounceOwnership",
      "outputs": [],
      "stateMutability": "nonpayable",
      "type": "function"
    },
    {
      "inputs": [
        {
          "internalType": "address",
          "name": "newOwner",
          "type": "address"
        }
      ],
      "name": "transferOwnership",
      "outputs": [],
      "stateMutability": "nonpayable",
      "type": "function"
    },
    {
      "inputs": [
        {
          "internalType": "address",
          "name": "vester",
          "type": "address"
        },
        {
          "internalType": "uint256",
          "name": "amount",
          "type": "uint256"
        }
      ],
      "name": "vesting",
      "outputs": [],
      "stateMutability": "nonpayable",
      "type": "function"
    }
  ],
  "bytecode": "0x60a06040526301e133806001553480156200001957600080fd5b506040516200177c3803806200177c83398181016040528101906200003f9190620001a5565b6000620000516200015760201b60201c565b9050806000806101000a81548173ffffffffffffffffffffffffffffffffffffffff021916908373ffffffffffffffffffffffffffffffffffffffff1602179055508073ffffffffffffffffffffffffffffffffffffffff16600073ffffffffffffffffffffffffffffffffffffffff167f8be0079c531659141344cd1fd0a4f28419497f9722a3daafe3b4186f6b6457e060405160405180910390a3508173ffffffffffffffffffffffffffffffffffffffff1660808173ffffffffffffffffffffffffffffffffffffffff1660601b815250508060028190555062000149816001546200015f60201b62000ca51790919060201c565b6001819055505050620002d3565b600033905090565b600081836200016f9190620001e6565b905092915050565b60008151905062000188816200029f565b92915050565b6000815190506200019f81620002b9565b92915050565b60008060408385031215620001b957600080fd5b6000620001c98582860162000177565b9250506020620001dc858286016200018e565b9150509250929050565b6000620001f38262000266565b9150620002008362000266565b92508262000213576200021262000270565b5b828204905092915050565b60006200022b8262000246565b9050919050565b60006200023f826200021e565b9050919050565b600073ffffffffffffffffffffffffffffffffffffffff82169050919050565b6000819050919050565b7f4e487b7100000000000000000000000000000000000000000000000000000000600052601260045260246000fd5b620002aa8162000232565b8114620002b657600080fd5b50565b620002c48162000266565b8114620002d057600080fd5b50565b60805160601c611483620002f9600039600081816101c4015261054f01526114836000f3fe608060405234801561001057600080fd5b50600436106100935760003560e01c80638da5cb5b116100665780638da5cb5b146100f85780638df40be814610116578063d5a73fdd14610146578063e12f3a6114610176578063f2fde38b146101a657610093565b806312bd396214610098578063143ee5b9146100b65780631e83409a146100d2578063715018a6146100ee575b600080fd5b6100a06101c2565b6040516100ad9190611122565b60405180910390f35b6100d060048036038101906100cb9190610ea6565b6101e6565b005b6100ec60048036038101906100e79190610e7d565b6103f1565b005b6100f66105ff565b005b610100610739565b60405161010d91906110de565b60405180910390f35b610130600480360381019061012b9190610e7d565b610762565b60405161013d91906111fd565b60405180910390f35b610160600480360381019061015b9190610e7d565b610894565b60405161016d91906111fd565b60405180910390f35b610190600480360381019061018b9190610e7d565b6109c6565b60405161019d91906111fd565b60405180910390f35b6101c060048036038101906101bb9190610e7d565b610afc565b005b7f000000000000000000000000000000000000000000000000000000000000000081565b600073ffffffffffffffffffffffffffffffffffffffff168273ffffffffffffffffffffffffffffffffffffffff161415610256576040517f08c379a000000000000000000000000000000000000000000000000000000000815260040161024d9061113d565b60405180910390fd5b600081141561029a576040517f08c379a0000000000000000000000000000000000000000000000000000000008152600401610291906111bd565b60405180910390fd5b6000600360008473ffffffffffffffffffffffffffffffffffffffff1673ffffffffffffffffffffffffffffffffffffffff1681526020019081526020016000206040518060600160405290816000820154815260200160018201548152602001600282015481525050905060008160000151146103625761033f8261033183604001518460000151610cbb90919063ffffffff16565b610cd190919063ffffffff16565b816000018181525050428160200181815250506000816040018181525050610381565b6040518060600160405280838152602001428152602001600081525090505b4281602001818152505080600360008573ffffffffffffffffffffffffffffffffffffffff1673ffffffffffffffffffffffffffffffffffffffff168152602001908152602001600020600082015181600001556020820151816001015560408201518160020155905050505050565b600073ffffffffffffffffffffffffffffffffffffffff168173ffffffffffffffffffffffffffffffffffffffff161415610461576040517f08c379a00000000000000000000000000000000000000000000000000000000081526004016104589061113d565b60405180910390fd5b600061046c82610ce7565b905060008114156104b2576040517f08c379a00000000000000000000000000000000000000000000000000000000081526004016104a9906111dd565b60405180910390fd5b61050781600360008573ffffffffffffffffffffffffffffffffffffffff1673ffffffffffffffffffffffffffffffffffffffff16815260200190815260200160002060020154610cd190919063ffffffff16565b600360008473ffffffffffffffffffffffffffffffffffffffff1673ffffffffffffffffffffffffffffffffffffffff168152602001908152602001600020600201819055507f000000000000000000000000000000000000000000000000000000000000000073ffffffffffffffffffffffffffffffffffffffff1663a9059cbb33836040518363ffffffff1660e01b81526004016105a89291906110f9565b602060405180830381600087803b1580156105c257600080fd5b505af11580156105d6573d6000803e3d6000fd5b505050506040513d601f19601f820116820180604052508101906105fa9190610ee2565b505050565b610607610e20565b73ffffffffffffffffffffffffffffffffffffffff16610625610739565b73ffffffffffffffffffffffffffffffffffffffff161461067b576040517f08c379a00000000000000000000000000000000000000000000000000000000081526004016106729061117d565b60405180910390fd5b600073ffffffffffffffffffffffffffffffffffffffff1660008054906101000a900473ffffffffffffffffffffffffffffffffffffffff1673ffffffffffffffffffffffffffffffffffffffff167f8be0079c531659141344cd1fd0a4f28419497f9722a3daafe3b4186f6b6457e060405160405180910390a360008060006101000a81548173ffffffffffffffffffffffffffffffffffffffff021916908373ffffffffffffffffffffffffffffffffffffffff160217905550565b60008060009054906101000a900473ffffffffffffffffffffffffffffffffffffffff16905090565b60008073ffffffffffffffffffffffffffffffffffffffff168273ffffffffffffffffffffffffffffffffffffffff1614156107d3576040517f08c379a00000000000000000000000000000000000000000000000000000000081526004016107ca9061113d565b60405180910390fd5b6000600360008473ffffffffffffffffffffffffffffffffffffffff1673ffffffffffffffffffffffffffffffffffffffff16815260200190815260200160002060405180606001604052908160008201548152602001600182015481526020016002820154815250509050600081600001511415610887576040517f08c379a000000000000000000000000000000000000000000000000000000000815260040161087e9061119d565b60405180910390fd5b8060400151915050919050565b60008073ffffffffffffffffffffffffffffffffffffffff168273ffffffffffffffffffffffffffffffffffffffff161415610905576040517f08c379a00000000000000000000000000000000000000000000000000000000081526004016108fc9061113d565b60405180910390fd5b6000600360008473ffffffffffffffffffffffffffffffffffffffff1673ffffffffffffffffffffffffffffffffffffffff168152602001908152602001600020604051806060016040529081600082015481526020016001820154815260200160028201548152505090506000816000015114156109b9576040517f08c379a00000000000000000000000000000000000000000000000000000000081526004016109b09061119d565b60405180910390fd5b8060000151915050919050565b60008073ffffffffffffffffffffffffffffffffffffffff168273ffffffffffffffffffffffffffffffffffffffff161415610a37576040517f08c379a0000000000000000000000000000000000000000000000000000000008152600401610a2e9061113d565b60405180910390fd5b6000600360008473ffffffffffffffffffffffffffffffffffffffff1673ffffffffffffffffffffffffffffffffffffffff16815260200190815260200160002060405180606001604052908160008201548152602001600182015481526020016002820154815250509050600081600001511415610aeb576040517f08c379a0000000000000000000000000000000000000000000000000000000008152600401610ae29061119d565b60405180910390fd5b610af483610ce7565b915050919050565b610b04610e20565b73ffffffffffffffffffffffffffffffffffffffff16610b22610739565b73ffffffffffffffffffffffffffffffffffffffff1614610b78576040517f08c379a0000000000000000000000000000000000000000000000000000000008152600401610b6f9061117d565b60405180910390fd5b600073ffffffffffffffffffffffffffffffffffffffff168173ffffffffffffffffffffffffffffffffffffffff161415610be8576040517f08c379a0000000000000000000000000000000000000000000000000000000008152600401610bdf9061115d565b60405180910390fd5b8073ffffffffffffffffffffffffffffffffffffffff1660008054906101000a900473ffffffffffffffffffffffffffffffffffffffff1673ffffffffffffffffffffffffffffffffffffffff167f8be0079c531659141344cd1fd0a4f28419497f9722a3daafe3b4186f6b6457e060405160405180910390a3806000806101000a81548173ffffffffffffffffffffffffffffffffffffffff021916908373ffffffffffffffffffffffffffffffffffffffff16021790555050565b60008183610cb3919061127f565b905092915050565b60008183610cc9919061130a565b905092915050565b60008183610cdf9190611229565b905092915050565b600080600360008473ffffffffffffffffffffffffffffffffffffffff1673ffffffffffffffffffffffffffffffffffffffff1681526020019081526020016000206001015490506000610dc0600154610db2600360008873ffffffffffffffffffffffffffffffffffffffff1673ffffffffffffffffffffffffffffffffffffffff16815260200190815260200160002060000154610da4600254610d968842610cbb90919063ffffffff16565b610ca590919063ffffffff16565b610e2890919063ffffffff16565b610ca590919063ffffffff16565b9050610e17600360008673ffffffffffffffffffffffffffffffffffffffff1673ffffffffffffffffffffffffffffffffffffffff1681526020019081526020016000206002015482610cbb90919063ffffffff16565b92505050919050565b600033905090565b60008183610e3691906112b0565b905092915050565b600081359050610e4d81611408565b92915050565b600081519050610e628161141f565b92915050565b600081359050610e7781611436565b92915050565b600060208284031215610e8f57600080fd5b6000610e9d84828501610e3e565b91505092915050565b60008060408385031215610eb957600080fd5b6000610ec785828601610e3e565b9250506020610ed885828601610e68565b9150509250929050565b600060208284031215610ef457600080fd5b6000610f0284828501610e53565b91505092915050565b610f148161133e565b82525050565b610f2381611386565b82525050565b6000610f36600f83611218565b91507f496e76616c6964206164647265737300000000000000000000000000000000006000830152602082019050919050565b6000610f76602683611218565b91507f4f776e61626c653a206e6577206f776e657220697320746865207a65726f206160008301527f64647265737300000000000000000000000000000000000000000000000000006020830152604082019050919050565b6000610fdc602083611218565b91507f4f776e61626c653a2063616c6c6572206973206e6f7420746865206f776e65726000830152602082019050919050565b600061101c601983611218565b91507f49742773206e6f74206120766573746564206163636f756e74000000000000006000830152602082019050919050565b600061105c601b83611218565b91507f416d6f756e742073686f756c6420626967676572207468616e203000000000006000830152602082019050919050565b600061109c601a83611218565b91507f4e6f20636c61696d61626c652068756e6472656420746f6b656e0000000000006000830152602082019050919050565b6110d88161137c565b82525050565b60006020820190506110f36000830184610f0b565b92915050565b600060408201905061110e6000830185610f0b565b61111b60208301846110cf565b9392505050565b60006020820190506111376000830184610f1a565b92915050565b6000602082019050818103600083015261115681610f29565b9050919050565b6000602082019050818103600083015261117681610f69565b9050919050565b6000602082019050818103600083015261119681610fcf565b9050919050565b600060208201905081810360008301526111b68161100f565b9050919050565b600060208201905081810360008301526111d68161104f565b9050919050565b600060208201905081810360008301526111f68161108f565b9050919050565b600060208201905061121260008301846110cf565b92915050565b600082825260208201905092915050565b60006112348261137c565b915061123f8361137c565b9250827fffffffffffffffffffffffffffffffffffffffffffffffffffffffffffffffff03821115611274576112736113aa565b5b828201905092915050565b600061128a8261137c565b91506112958361137c565b9250826112a5576112a46113d9565b5b828204905092915050565b60006112bb8261137c565b91506112c68361137c565b9250817fffffffffffffffffffffffffffffffffffffffffffffffffffffffffffffffff04831182151516156112ff576112fe6113aa565b5b828202905092915050565b60006113158261137c565b91506113208361137c565b925082821015611333576113326113aa565b5b828203905092915050565b60006113498261135c565b9050919050565b60008115159050919050565b600073ffffffffffffffffffffffffffffffffffffffff82169050919050565b6000819050919050565b600061139182611398565b9050919050565b60006113a38261135c565b9050919050565b7f4e487b7100000000000000000000000000000000000000000000000000000000600052601160045260246000fd5b7f4e487b7100000000000000000000000000000000000000000000000000000000600052601260045260246000fd5b6114118161133e565b811461141c57600080fd5b50565b61142881611350565b811461143357600080fd5b50565b61143f8161137c565b811461144a57600080fd5b5056fea26469706673582212206f1208743b0f28fb190d90c4362c86720645b3d3993f36bfad3db47592529ebb64736f6c63430008000033",
  "linkReferences": {},
  "deployedLinkReferences": {}
}