{
  "_format": "hh-sol-artifact-1",
  "contractName": "HundredVesting",
  "sourceName": "contracts/HundredVesting.sol",
  "abi": [
    {
      "inputs": [
        {
          "internalType": "contract IERC20",
          "name": "hundred",
          "type": "address"
        },
        {
          "internalType": "uint256",
          "name": "period",
          "type": "uint256"
        }
      ],
      "stateMutability": "nonpayable",
      "type": "constructor"
    },
    {
      "inputs": [],
      "name": "Hundred",
      "outputs": [
        {
          "internalType": "contract IERC20",
          "name": "",
          "type": "address"
        }
      ],
      "stateMutability": "view",
      "type": "function"
    },
    {
      "inputs": [],
      "name": "claim",
      "outputs": [],
      "stateMutability": "nonpayable",
      "type": "function"
    },
    {
      "inputs": [],
      "name": "getClaimableAmount",
      "outputs": [
        {
          "internalType": "uint256",
          "name": "",
          "type": "uint256"
        }
      ],
      "stateMutability": "view",
      "type": "function"
    },
    {
      "inputs": [],
      "name": "getClaimedAmount",
      "outputs": [
        {
          "internalType": "uint256",
          "name": "",
          "type": "uint256"
        }
      ],
      "stateMutability": "view",
      "type": "function"
    },
    {
      "inputs": [],
      "name": "getVestedAmount",
      "outputs": [
        {
          "internalType": "uint256",
          "name": "",
          "type": "uint256"
        }
      ],
      "stateMutability": "view",
      "type": "function"
    },
    {
      "inputs": [
        {
          "internalType": "address",
          "name": "vestedAddress",
          "type": "address"
        },
        {
          "internalType": "uint256",
          "name": "amount",
          "type": "uint256"
        }
      ],
      "name": "vesting",
      "outputs": [],
      "stateMutability": "nonpayable",
      "type": "function"
    }
  ],
  "bytecode": "0x60a06040526301e133806000553480156200001957600080fd5b50604051620015c0380380620015c083398181016040528101906200003f9190620000c9565b8173ffffffffffffffffffffffffffffffffffffffff1660808173ffffffffffffffffffffffffffffffffffffffff1660601b8152505080600181905550806000546200008d91906200010a565b6000819055505050620001f7565b600081519050620000ac81620001c3565b92915050565b600081519050620000c381620001dd565b92915050565b60008060408385031215620000dd57600080fd5b6000620000ed858286016200009b565b92505060206200010085828601620000b2565b9150509250929050565b600062000117826200018a565b915062000124836200018a565b92508262000137576200013662000194565b5b828204905092915050565b60006200014f826200016a565b9050919050565b6000620001638262000142565b9050919050565b600073ffffffffffffffffffffffffffffffffffffffff82169050919050565b6000819050919050565b7f4e487b7100000000000000000000000000000000000000000000000000000000600052601260045260246000fd5b620001ce8162000156565b8114620001da57600080fd5b50565b620001e8816200018a565b8114620001f457600080fd5b50565b60805160601c61139c62000224600039600081816101070152818161017501526103c1015261139c6000f3fe608060405234801561001057600080fd5b50600436106100625760003560e01c806312bd396214610067578063143ee5b9146100855780634e71d92d146100a157806386210130146100ab5780639f2d9f2a146100c9578063c354bd6e146100e7575b600080fd5b61006f610105565b60405161007c9190610e29565b60405180910390f35b61009f600480360381019061009a9190610bc1565b610129565b005b6100a96102f9565b005b6100b361049c565b6040516100c09190610f46565b60405180910390f35b6100d161055c565b6040516100de9190610f46565b60405180910390f35b6100ef61061c565b6040516100fc9190610f46565b60405180910390f35b7f000000000000000000000000000000000000000000000000000000000000000081565b600081141561016d576040517f08c379a000000000000000000000000000000000000000000000000000000000815260040161016490610ec6565b60405180910390fd5b6101ba3330837f000000000000000000000000000000000000000000000000000000000000000073ffffffffffffffffffffffffffffffffffffffff166106e0909392919063ffffffff16565b6000600260008473ffffffffffffffffffffffffffffffffffffffff1673ffffffffffffffffffffffffffffffffffffffff1681526020019081526020016000206040518060600160405290816000820154815260200160018201548152602001600282015481525050905060008160000151146102745781816040015182600001516102479190611074565b6102519190610f93565b816000018181525050428160200181815250506000816040018181525050610293565b6040518060600160405280838152602001428152602001600081525090505b80600260008573ffffffffffffffffffffffffffffffffffffffff1673ffffffffffffffffffffffffffffffffffffffff168152602001908152602001600020600082015181600001556020820151816001015560408201518160020155905050505050565b600073ffffffffffffffffffffffffffffffffffffffff163373ffffffffffffffffffffffffffffffffffffffff161415610369576040517f08c379a000000000000000000000000000000000000000000000000000000000815260040161036090610e66565b60405180910390fd5b600061037433610769565b905060008114156103ba576040517f08c379a00000000000000000000000000000000000000000000000000000000081526004016103b190610ee6565b60405180910390fd5b61040533827f000000000000000000000000000000000000000000000000000000000000000073ffffffffffffffffffffffffffffffffffffffff1661088f9092919063ffffffff16565b80600260003373ffffffffffffffffffffffffffffffffffffffff1673ffffffffffffffffffffffffffffffffffffffff168152602001908152602001600020600201546104539190610f93565b600260003373ffffffffffffffffffffffffffffffffffffffff1673ffffffffffffffffffffffffffffffffffffffff1681526020019081526020016000206002018190555050565b600080600260003373ffffffffffffffffffffffffffffffffffffffff1673ffffffffffffffffffffffffffffffffffffffff16815260200190815260200160002060405180606001604052908160008201548152602001600182015481526020016002820154815250509050600081600001511415610551576040517f08c379a000000000000000000000000000000000000000000000000000000000815260040161054890610ea6565b60405180910390fd5b806040015191505090565b600080600260003373ffffffffffffffffffffffffffffffffffffffff1673ffffffffffffffffffffffffffffffffffffffff16815260200190815260200160002060405180606001604052908160008201548152602001600182015481526020016002820154815250509050600081600001511415610611576040517f08c379a000000000000000000000000000000000000000000000000000000000815260040161060890610ea6565b60405180910390fd5b806000015191505090565b600080600260003373ffffffffffffffffffffffffffffffffffffffff1673ffffffffffffffffffffffffffffffffffffffff168152602001908152602001600020604051806060016040529081600082015481526020016001820154815260200160028201548152505090506000816000015114156106d1576040517f08c379a00000000000000000000000000000000000000000000000000000000081526004016106c890610ea6565b60405180910390fd5b6106da33610769565b91505090565b610763846323b872dd60e01b85858560405160240161070193929190610dc9565b604051602081830303815290604052907bffffffffffffffffffffffffffffffffffffffffffffffffffffffff19166020820180517bffffffffffffffffffffffffffffffffffffffffffffffffffffffff8381831617835250505050610915565b50505050565b600080600260008473ffffffffffffffffffffffffffffffffffffffff1673ffffffffffffffffffffffffffffffffffffffff1681526020019081526020016000206001015490506000600260008573ffffffffffffffffffffffffffffffffffffffff1673ffffffffffffffffffffffffffffffffffffffff16815260200190815260200160002060020154600054600260008773ffffffffffffffffffffffffffffffffffffffff1673ffffffffffffffffffffffffffffffffffffffff16815260200190815260200160002060000154600154854261084b9190611074565b6108559190610fe9565b61085f919061101a565b6108699190610fe9565b6108739190611074565b9050600081106108835780610886565b60005b92505050919050565b6109108363a9059cbb60e01b84846040516024016108ae929190610e00565b604051602081830303815290604052907bffffffffffffffffffffffffffffffffffffffffffffffffffffffff19166020820180517bffffffffffffffffffffffffffffffffffffffffffffffffffffffff8381831617835250505050610915565b505050565b6000610977826040518060400160405280602081526020017f5361666545524332303a206c6f772d6c6576656c2063616c6c206661696c65648152508573ffffffffffffffffffffffffffffffffffffffff166109dc9092919063ffffffff16565b90506000815111156109d757808060200190518101906109979190610bfd565b6109d6576040517f08c379a00000000000000000000000000000000000000000000000000000000081526004016109cd90610f26565b60405180910390fd5b5b505050565b60606109eb84846000856109f4565b90509392505050565b606082471015610a39576040517f08c379a0000000000000000000000000000000000000000000000000000000008152600401610a3090610e86565b60405180910390fd5b610a4285610b08565b610a81576040517f08c379a0000000000000000000000000000000000000000000000000000000008152600401610a7890610f06565b60405180910390fd5b6000808673ffffffffffffffffffffffffffffffffffffffff168587604051610aaa9190610db2565b60006040518083038185875af1925050503d8060008114610ae7576040519150601f19603f3d011682016040523d82523d6000602084013e610aec565b606091505b5091509150610afc828286610b1b565b92505050949350505050565b600080823b905060008111915050919050565b60608315610b2b57829050610b7b565b600083511115610b3e5782518084602001fd5b816040517f08c379a0000000000000000000000000000000000000000000000000000000008152600401610b729190610e44565b60405180910390fd5b9392505050565b600081359050610b9181611321565b92915050565b600081519050610ba681611338565b92915050565b600081359050610bbb8161134f565b92915050565b60008060408385031215610bd457600080fd5b6000610be285828601610b82565b9250506020610bf385828601610bac565b9150509250929050565b600060208284031215610c0f57600080fd5b6000610c1d84828501610b97565b91505092915050565b610c2f816110a8565b82525050565b6000610c4082610f61565b610c4a8185610f77565b9350610c5a818560208601611114565b80840191505092915050565b610c6f816110f0565b82525050565b6000610c8082610f6c565b610c8a8185610f82565b9350610c9a818560208601611114565b610ca3816111a5565b840191505092915050565b6000610cbb600f83610f82565b9150610cc6826111b6565b602082019050919050565b6000610cde602683610f82565b9150610ce9826111df565b604082019050919050565b6000610d01601983610f82565b9150610d0c8261122e565b602082019050919050565b6000610d24601b83610f82565b9150610d2f82611257565b602082019050919050565b6000610d47601a83610f82565b9150610d5282611280565b602082019050919050565b6000610d6a601d83610f82565b9150610d75826112a9565b602082019050919050565b6000610d8d602a83610f82565b9150610d98826112d2565b604082019050919050565b610dac816110e6565b82525050565b6000610dbe8284610c35565b915081905092915050565b6000606082019050610dde6000830186610c26565b610deb6020830185610c26565b610df86040830184610da3565b949350505050565b6000604082019050610e156000830185610c26565b610e226020830184610da3565b9392505050565b6000602082019050610e3e6000830184610c66565b92915050565b60006020820190508181036000830152610e5e8184610c75565b905092915050565b60006020820190508181036000830152610e7f81610cae565b9050919050565b60006020820190508181036000830152610e9f81610cd1565b9050919050565b60006020820190508181036000830152610ebf81610cf4565b9050919050565b60006020820190508181036000830152610edf81610d17565b9050919050565b60006020820190508181036000830152610eff81610d3a565b9050919050565b60006020820190508181036000830152610f1f81610d5d565b9050919050565b60006020820190508181036000830152610f3f81610d80565b9050919050565b6000602082019050610f5b6000830184610da3565b92915050565b600081519050919050565b600081519050919050565b600081905092915050565b600082825260208201905092915050565b6000610f9e826110e6565b9150610fa9836110e6565b9250827fffffffffffffffffffffffffffffffffffffffffffffffffffffffffffffffff03821115610fde57610fdd611147565b5b828201905092915050565b6000610ff4826110e6565b9150610fff836110e6565b92508261100f5761100e611176565b5b828204905092915050565b6000611025826110e6565b9150611030836110e6565b9250817fffffffffffffffffffffffffffffffffffffffffffffffffffffffffffffffff048311821515161561106957611068611147565b5b828202905092915050565b600061107f826110e6565b915061108a836110e6565b92508282101561109d5761109c611147565b5b828203905092915050565b60006110b3826110c6565b9050919050565b60008115159050919050565b600073ffffffffffffffffffffffffffffffffffffffff82169050919050565b6000819050919050565b60006110fb82611102565b9050919050565b600061110d826110c6565b9050919050565b60005b83811015611132578082015181840152602081019050611117565b83811115611141576000848401525b50505050565b7f4e487b7100000000000000000000000000000000000000000000000000000000600052601160045260246000fd5b7f4e487b7100000000000000000000000000000000000000000000000000000000600052601260045260246000fd5b6000601f19601f8301169050919050565b7f496e76616c696420616464726573730000000000000000000000000000000000600082015250565b7f416464726573733a20696e73756666696369656e742062616c616e636520666f60008201527f722063616c6c0000000000000000000000000000000000000000000000000000602082015250565b7f49742773206e6f74206120766573746564206163636f756e7400000000000000600082015250565b7f416d6f756e742073686f756c6420626967676572207468616e20300000000000600082015250565b7f4e6f20636c61696d61626c652068756e6472656420746f6b656e000000000000600082015250565b7f416464726573733a2063616c6c20746f206e6f6e2d636f6e7472616374000000600082015250565b7f5361666545524332303a204552433230206f7065726174696f6e20646964206e60008201527f6f74207375636365656400000000000000000000000000000000000000000000602082015250565b61132a816110a8565b811461133557600080fd5b50565b611341816110ba565b811461134c57600080fd5b50565b611358816110e6565b811461136357600080fd5b5056fea264697066735822122021e7942cbeaa3e91c0d2c019f788fa295fccc804924b9d388388f3e7801a306364736f6c63430008030033",
  "linkReferences": {},
  "deployedLinkReferences": {}
}