{
  "_format": "hh-sol-artifact-1",
  "contractName": "HundredVesting",
  "sourceName": "contracts/HundredVesting.sol",
  "abi": [
    {
      "inputs": [
        {
          "internalType": "contract IERC20",
          "name": "hundred",
          "type": "address"
        },
        {
          "internalType": "uint256",
          "name": "period",
          "type": "uint256"
        }
      ],
      "stateMutability": "nonpayable",
      "type": "constructor"
    },
    {
      "anonymous": false,
      "inputs": [
        {
          "indexed": true,
          "internalType": "address",
          "name": "previousOwner",
          "type": "address"
        },
        {
          "indexed": true,
          "internalType": "address",
          "name": "newOwner",
          "type": "address"
        }
      ],
      "name": "OwnershipTransferred",
      "type": "event"
    },
    {
      "inputs": [],
      "name": "Hundred",
      "outputs": [
        {
          "internalType": "contract IERC20",
          "name": "",
          "type": "address"
        }
      ],
      "stateMutability": "view",
      "type": "function"
    },
    {
      "inputs": [
        {
          "internalType": "address",
          "name": "vester",
          "type": "address"
        }
      ],
      "name": "claim",
      "outputs": [],
      "stateMutability": "nonpayable",
      "type": "function"
    },
    {
      "inputs": [
        {
          "internalType": "address",
          "name": "vester",
          "type": "address"
        }
      ],
      "name": "getClaimableAmount",
      "outputs": [
        {
          "internalType": "uint256",
          "name": "",
          "type": "uint256"
        }
      ],
      "stateMutability": "view",
      "type": "function"
    },
    {
      "inputs": [
        {
          "internalType": "address",
          "name": "vester",
          "type": "address"
        }
      ],
      "name": "getClaimedAmount",
      "outputs": [
        {
          "internalType": "uint256",
          "name": "",
          "type": "uint256"
        }
      ],
      "stateMutability": "view",
      "type": "function"
    },
    {
      "inputs": [
        {
          "internalType": "address",
          "name": "vester",
          "type": "address"
        }
      ],
      "name": "getVestedAmount",
      "outputs": [
        {
          "internalType": "uint256",
          "name": "",
          "type": "uint256"
        }
      ],
      "stateMutability": "view",
      "type": "function"
    },
    {
      "inputs": [],
      "name": "owner",
      "outputs": [
        {
          "internalType": "address",
          "name": "",
          "type": "address"
        }
      ],
      "stateMutability": "view",
      "type": "function"
    },
    {
      "inputs": [],
      "name": "renounceOwnership",
      "outputs": [],
      "stateMutability": "nonpayable",
      "type": "function"
    },
    {
      "inputs": [
        {
          "internalType": "address",
          "name": "newOwner",
          "type": "address"
        }
      ],
      "name": "transferOwnership",
      "outputs": [],
      "stateMutability": "nonpayable",
      "type": "function"
    },
    {
      "inputs": [
        {
          "internalType": "address",
          "name": "vester",
          "type": "address"
        },
        {
          "internalType": "uint256",
          "name": "amount",
          "type": "uint256"
        }
      ],
      "name": "vesting",
      "outputs": [],
      "stateMutability": "nonpayable",
      "type": "function"
    }
  ],
  "bytecode": "0x60a06040526301e133806001553480156200001957600080fd5b50604051620017fe380380620017fe83398181016040528101906200003f919062000181565b6000620000516200014b60201b60201c565b9050806000806101000a81548173ffffffffffffffffffffffffffffffffffffffff021916908373ffffffffffffffffffffffffffffffffffffffff1602179055508073ffffffffffffffffffffffffffffffffffffffff16600073ffffffffffffffffffffffffffffffffffffffff167f8be0079c531659141344cd1fd0a4f28419497f9722a3daafe3b4186f6b6457e060405160405180910390a3508173ffffffffffffffffffffffffffffffffffffffff1660808173ffffffffffffffffffffffffffffffffffffffff1660601b8152505080600281905550806001546200013d9190620001c2565b6001819055505050620002af565b600033905090565b60008151905062000164816200027b565b92915050565b6000815190506200017b8162000295565b92915050565b600080604083850312156200019557600080fd5b6000620001a58582860162000153565b9250506020620001b8858286016200016a565b9150509250929050565b6000620001cf8262000242565b9150620001dc8362000242565b925082620001ef57620001ee6200024c565b5b828204905092915050565b6000620002078262000222565b9050919050565b60006200021b82620001fa565b9050919050565b600073ffffffffffffffffffffffffffffffffffffffff82169050919050565b6000819050919050565b7f4e487b7100000000000000000000000000000000000000000000000000000000600052601260045260246000fd5b62000286816200020e565b81146200029257600080fd5b50565b620002a08162000242565b8114620002ac57600080fd5b50565b60805160601c611522620002dc600039600081816101c40152818161029c01526105ea01526115226000f3fe608060405234801561001057600080fd5b50600436106100935760003560e01c80638da5cb5b116100665780638da5cb5b146100f85780638df40be814610116578063d5a73fdd14610146578063e12f3a6114610176578063f2fde38b146101a657610093565b806312bd396214610098578063143ee5b9146100b65780631e83409a146100d2578063715018a6146100ee575b600080fd5b6100a06101c2565b6040516100ad91906110a5565b60405180910390f35b6100d060048036038101906100cb9190610ec6565b6101e6565b005b6100ec60048036038101906100e79190610e9d565b610493565b005b6100f661069a565b005b6101006107d4565b60405161010d919061102a565b60405180910390f35b610130600480360381019061012b9190610e9d565b6107fd565b60405161013d9190611180565b60405180910390f35b610160600480360381019061015b9190610e9d565b61092f565b60405161016d9190611180565b60405180910390f35b610190600480360381019061018b9190610e9d565b610a61565b60405161019d9190611180565b60405180910390f35b6101c060048036038101906101bb9190610e9d565b610b97565b005b7f000000000000000000000000000000000000000000000000000000000000000081565b600073ffffffffffffffffffffffffffffffffffffffff168273ffffffffffffffffffffffffffffffffffffffff161415610256576040517f08c379a000000000000000000000000000000000000000000000000000000000815260040161024d906110c0565b60405180910390fd5b600081141561029a576040517f08c379a000000000000000000000000000000000000000000000000000000000815260040161029190611140565b60405180910390fd5b7f000000000000000000000000000000000000000000000000000000000000000073ffffffffffffffffffffffffffffffffffffffff166323b872dd3330846040518463ffffffff1660e01b81526004016102f793929190611045565b602060405180830381600087803b15801561031157600080fd5b505af1158015610325573d6000803e3d6000fd5b505050506040513d601f19601f820116820180604052508101906103499190610f02565b506000600360008473ffffffffffffffffffffffffffffffffffffffff1673ffffffffffffffffffffffffffffffffffffffff1681526020019081526020016000206040518060600160405290816000820154815260200160018201548152602001600282015481525050905060008160000151146104045781816040015182600001516103d7919061128d565b6103e191906111ac565b816000018181525050428160200181815250506000816040018181525050610423565b6040518060600160405280838152602001428152602001600081525090505b4281602001818152505080600360008573ffffffffffffffffffffffffffffffffffffffff1673ffffffffffffffffffffffffffffffffffffffff168152602001908152602001600020600082015181600001556020820151816001015560408201518160020155905050505050565b600073ffffffffffffffffffffffffffffffffffffffff168173ffffffffffffffffffffffffffffffffffffffff161415610503576040517f08c379a00000000000000000000000000000000000000000000000000000000081526004016104fa906110c0565b60405180910390fd5b600061050e82610d40565b90506000811415610554576040517f08c379a000000000000000000000000000000000000000000000000000000000815260040161054b90611160565b60405180910390fd5b80600360008473ffffffffffffffffffffffffffffffffffffffff1673ffffffffffffffffffffffffffffffffffffffff168152602001908152602001600020600201546105a291906111ac565b600360008473ffffffffffffffffffffffffffffffffffffffff1673ffffffffffffffffffffffffffffffffffffffff168152602001908152602001600020600201819055507f000000000000000000000000000000000000000000000000000000000000000073ffffffffffffffffffffffffffffffffffffffff1663a9059cbb33836040518363ffffffff1660e01b815260040161064392919061107c565b602060405180830381600087803b15801561065d57600080fd5b505af1158015610671573d6000803e3d6000fd5b505050506040513d601f19601f820116820180604052508101906106959190610f02565b505050565b6106a2610e56565b73ffffffffffffffffffffffffffffffffffffffff166106c06107d4565b73ffffffffffffffffffffffffffffffffffffffff1614610716576040517f08c379a000000000000000000000000000000000000000000000000000000000815260040161070d90611100565b60405180910390fd5b600073ffffffffffffffffffffffffffffffffffffffff1660008054906101000a900473ffffffffffffffffffffffffffffffffffffffff1673ffffffffffffffffffffffffffffffffffffffff167f8be0079c531659141344cd1fd0a4f28419497f9722a3daafe3b4186f6b6457e060405160405180910390a360008060006101000a81548173ffffffffffffffffffffffffffffffffffffffff021916908373ffffffffffffffffffffffffffffffffffffffff160217905550565b60008060009054906101000a900473ffffffffffffffffffffffffffffffffffffffff16905090565b60008073ffffffffffffffffffffffffffffffffffffffff168273ffffffffffffffffffffffffffffffffffffffff16141561086e576040517f08c379a0000000000000000000000000000000000000000000000000000000008152600401610865906110c0565b60405180910390fd5b6000600360008473ffffffffffffffffffffffffffffffffffffffff1673ffffffffffffffffffffffffffffffffffffffff16815260200190815260200160002060405180606001604052908160008201548152602001600182015481526020016002820154815250509050600081600001511415610922576040517f08c379a000000000000000000000000000000000000000000000000000000000815260040161091990611120565b60405180910390fd5b8060400151915050919050565b60008073ffffffffffffffffffffffffffffffffffffffff168273ffffffffffffffffffffffffffffffffffffffff1614156109a0576040517f08c379a0000000000000000000000000000000000000000000000000000000008152600401610997906110c0565b60405180910390fd5b6000600360008473ffffffffffffffffffffffffffffffffffffffff1673ffffffffffffffffffffffffffffffffffffffff16815260200190815260200160002060405180606001604052908160008201548152602001600182015481526020016002820154815250509050600081600001511415610a54576040517f08c379a0000000000000000000000000000000000000000000000000000000008152600401610a4b90611120565b60405180910390fd5b8060000151915050919050565b60008073ffffffffffffffffffffffffffffffffffffffff168273ffffffffffffffffffffffffffffffffffffffff161415610ad2576040517f08c379a0000000000000000000000000000000000000000000000000000000008152600401610ac9906110c0565b60405180910390fd5b6000600360008473ffffffffffffffffffffffffffffffffffffffff1673ffffffffffffffffffffffffffffffffffffffff16815260200190815260200160002060405180606001604052908160008201548152602001600182015481526020016002820154815250509050600081600001511415610b86576040517f08c379a0000000000000000000000000000000000000000000000000000000008152600401610b7d90611120565b60405180910390fd5b610b8f83610d40565b915050919050565b610b9f610e56565b73ffffffffffffffffffffffffffffffffffffffff16610bbd6107d4565b73ffffffffffffffffffffffffffffffffffffffff1614610c13576040517f08c379a0000000000000000000000000000000000000000000000000000000008152600401610c0a90611100565b60405180910390fd5b600073ffffffffffffffffffffffffffffffffffffffff168173ffffffffffffffffffffffffffffffffffffffff161415610c83576040517f08c379a0000000000000000000000000000000000000000000000000000000008152600401610c7a906110e0565b60405180910390fd5b8073ffffffffffffffffffffffffffffffffffffffff1660008054906101000a900473ffffffffffffffffffffffffffffffffffffffff1673ffffffffffffffffffffffffffffffffffffffff167f8be0079c531659141344cd1fd0a4f28419497f9722a3daafe3b4186f6b6457e060405160405180910390a3806000806101000a81548173ffffffffffffffffffffffffffffffffffffffff021916908373ffffffffffffffffffffffffffffffffffffffff16021790555050565b600080600360008473ffffffffffffffffffffffffffffffffffffffff1673ffffffffffffffffffffffffffffffffffffffff1681526020019081526020016000206001015490506000600154600360008673ffffffffffffffffffffffffffffffffffffffff1673ffffffffffffffffffffffffffffffffffffffff168152602001908152602001600020600001546002548442610ddf919061128d565b610de99190611202565b610df39190611233565b610dfd9190611202565b9050600360008573ffffffffffffffffffffffffffffffffffffffff1673ffffffffffffffffffffffffffffffffffffffff1681526020019081526020016000206002015481610e4d919061128d565b92505050919050565b600033905090565b600081359050610e6d816114a7565b92915050565b600081519050610e82816114be565b92915050565b600081359050610e97816114d5565b92915050565b600060208284031215610eaf57600080fd5b6000610ebd84828501610e5e565b91505092915050565b60008060408385031215610ed957600080fd5b6000610ee785828601610e5e565b9250506020610ef885828601610e88565b9150509250929050565b600060208284031215610f1457600080fd5b6000610f2284828501610e73565b91505092915050565b610f34816112c1565b82525050565b610f4381611309565b82525050565b6000610f56600f8361119b565b9150610f618261138b565b602082019050919050565b6000610f7960268361119b565b9150610f84826113b4565b604082019050919050565b6000610f9c60208361119b565b9150610fa782611403565b602082019050919050565b6000610fbf60198361119b565b9150610fca8261142c565b602082019050919050565b6000610fe2601b8361119b565b9150610fed82611455565b602082019050919050565b6000611005601a8361119b565b91506110108261147e565b602082019050919050565b611024816112ff565b82525050565b600060208201905061103f6000830184610f2b565b92915050565b600060608201905061105a6000830186610f2b565b6110676020830185610f2b565b611074604083018461101b565b949350505050565b60006040820190506110916000830185610f2b565b61109e602083018461101b565b9392505050565b60006020820190506110ba6000830184610f3a565b92915050565b600060208201905081810360008301526110d981610f49565b9050919050565b600060208201905081810360008301526110f981610f6c565b9050919050565b6000602082019050818103600083015261111981610f8f565b9050919050565b6000602082019050818103600083015261113981610fb2565b9050919050565b6000602082019050818103600083015261115981610fd5565b9050919050565b6000602082019050818103600083015261117981610ff8565b9050919050565b6000602082019050611195600083018461101b565b92915050565b600082825260208201905092915050565b60006111b7826112ff565b91506111c2836112ff565b9250827fffffffffffffffffffffffffffffffffffffffffffffffffffffffffffffffff038211156111f7576111f661132d565b5b828201905092915050565b600061120d826112ff565b9150611218836112ff565b9250826112285761122761135c565b5b828204905092915050565b600061123e826112ff565b9150611249836112ff565b9250817fffffffffffffffffffffffffffffffffffffffffffffffffffffffffffffffff04831182151516156112825761128161132d565b5b828202905092915050565b6000611298826112ff565b91506112a3836112ff565b9250828210156112b6576112b561132d565b5b828203905092915050565b60006112cc826112df565b9050919050565b60008115159050919050565b600073ffffffffffffffffffffffffffffffffffffffff82169050919050565b6000819050919050565b60006113148261131b565b9050919050565b6000611326826112df565b9050919050565b7f4e487b7100000000000000000000000000000000000000000000000000000000600052601160045260246000fd5b7f4e487b7100000000000000000000000000000000000000000000000000000000600052601260045260246000fd5b7f496e76616c696420616464726573730000000000000000000000000000000000600082015250565b7f4f776e61626c653a206e6577206f776e657220697320746865207a65726f206160008201527f6464726573730000000000000000000000000000000000000000000000000000602082015250565b7f4f776e61626c653a2063616c6c6572206973206e6f7420746865206f776e6572600082015250565b7f49742773206e6f74206120766573746564206163636f756e7400000000000000600082015250565b7f416d6f756e742073686f756c6420626967676572207468616e20300000000000600082015250565b7f4e6f20636c61696d61626c652068756e6472656420746f6b656e000000000000600082015250565b6114b0816112c1565b81146114bb57600080fd5b50565b6114c7816112d3565b81146114d257600080fd5b50565b6114de816112ff565b81146114e957600080fd5b5056fea26469706673582212202d5204eb003d7426348c6cc17253e83d3fbb59fa4f065f7a478ca459157cf5a164736f6c63430008030033",
  "linkReferences": {},
  "deployedLinkReferences": {}
}