{
  "_format": "hh-sol-artifact-1",
  "contractName": "PCTtoHundredMigrator",
  "sourceName": "contracts/PCTtoHundredMigrator.sol",
  "abi": [
    {
      "inputs": [
        {
          "internalType": "contract IERC20",
          "name": "pct",
          "type": "address"
        },
        {
          "internalType": "contract IERC20",
          "name": "hundred",
          "type": "address"
        },
        {
          "internalType": "address",
          "name": "vesting",
          "type": "address"
        }
      ],
      "stateMutability": "nonpayable",
      "type": "constructor"
    },
    {
      "inputs": [],
      "name": "Hundred",
      "outputs": [
        {
          "internalType": "contract IERC20",
          "name": "",
          "type": "address"
        }
      ],
      "stateMutability": "view",
      "type": "function"
    },
    {
      "inputs": [],
      "name": "PCT",
      "outputs": [
        {
          "internalType": "contract IERC20",
          "name": "",
          "type": "address"
        }
      ],
      "stateMutability": "view",
      "type": "function"
    },
    {
      "inputs": [],
      "name": "PercentMax",
      "outputs": [
        {
          "internalType": "uint256",
          "name": "",
          "type": "uint256"
        }
      ],
      "stateMutability": "view",
      "type": "function"
    },
    {
      "inputs": [],
      "name": "UserPercent",
      "outputs": [
        {
          "internalType": "uint256",
          "name": "",
          "type": "uint256"
        }
      ],
      "stateMutability": "view",
      "type": "function"
    },
    {
      "inputs": [],
      "name": "Vesting",
      "outputs": [
        {
          "internalType": "contract HundredVesting",
          "name": "",
          "type": "address"
        }
      ],
      "stateMutability": "view",
      "type": "function"
    },
    {
      "inputs": [],
      "name": "VestingPercent",
      "outputs": [
        {
          "internalType": "uint256",
          "name": "",
          "type": "uint256"
        }
      ],
      "stateMutability": "view",
      "type": "function"
    },
    {
      "inputs": [
        {
          "internalType": "uint256",
          "name": "amount",
          "type": "uint256"
        }
      ],
      "name": "claim",
      "outputs": [],
      "stateMutability": "nonpayable",
      "type": "function"
    }
  ],
  "bytecode": "0x60e0604052600a600055605a600155606460025534801561001f57600080fd5b50604051610b2c380380610b2c83398181016040528101906100419190610118565b8273ffffffffffffffffffffffffffffffffffffffff1660808173ffffffffffffffffffffffffffffffffffffffff1660601b815250508173ffffffffffffffffffffffffffffffffffffffff1660a08173ffffffffffffffffffffffffffffffffffffffff1660601b815250508073ffffffffffffffffffffffffffffffffffffffff1660c08173ffffffffffffffffffffffffffffffffffffffff1660601b815250505050506101d9565b6000815190506100fd816101ab565b92915050565b600081519050610112816101c2565b92915050565b60008060006060848603121561012d57600080fd5b600061013b86828701610103565b935050602061014c86828701610103565b925050604061015d868287016100ee565b9150509250925092565b60006101728261018b565b9050919050565b600061018482610167565b9050919050565b600073ffffffffffffffffffffffffffffffffffffffff82169050919050565b6101b481610167565b81146101bf57600080fd5b50565b6101cb81610179565b81146101d657600080fd5b50565b60805160601c60a05160601c60c05160601c6108f8610234600039600081816103910152818161042301526104d9015260008181610154015281816102a701526103550152600081816101f701526104b501526108f86000f3fe608060405234801561001057600080fd5b506004361061007d5760003560e01c8063379607f51161005b578063379607f5146100dc5780639871ee02146100f8578063b13ef34314610116578063e0d5d5b7146101345761007d565b806312bd3962146100825780632104378a146100a057806324b2b1f3146100be575b600080fd5b61008a610152565b6040516100979190610657565b60405180910390f35b6100a8610176565b6040516100b59190610692565b60405180910390f35b6100c661017c565b6040516100d39190610692565b60405180910390f35b6100f660048036038101906100f19190610554565b610182565b005b6101006104b3565b60405161010d9190610657565b60405180910390f35b61011e6104d7565b60405161012b919061063c565b60405180910390f35b61013c6104fb565b6040516101499190610692565b60405180910390f35b7f000000000000000000000000000000000000000000000000000000000000000081565b60015481565b60005481565b60008114156101c6576040517f08c379a00000000000000000000000000000000000000000000000000000000081526004016101bd90610672565b60405180910390fd5b6000600254600054836101d991906106ef565b6101e391906106be565b9050600081836101f39190610749565b90507f000000000000000000000000000000000000000000000000000000000000000073ffffffffffffffffffffffffffffffffffffffff166323b872dd3330866040518463ffffffff1660e01b8152600401610252939291906105dc565b602060405180830381600087803b15801561026c57600080fd5b505af1158015610280573d6000803e3d6000fd5b505050506040513d601f19601f820116820180604052508101906102a4919061052b565b507f000000000000000000000000000000000000000000000000000000000000000073ffffffffffffffffffffffffffffffffffffffff1663a9059cbb33846040518363ffffffff1660e01b8152600401610300929190610613565b602060405180830381600087803b15801561031a57600080fd5b505af115801561032e573d6000803e3d6000fd5b505050506040513d601f19601f82011682018060405250810190610352919061052b565b507f000000000000000000000000000000000000000000000000000000000000000073ffffffffffffffffffffffffffffffffffffffff1663a9059cbb7f0000000000000000000000000000000000000000000000000000000000000000836040518363ffffffff1660e01b81526004016103ce929190610613565b602060405180830381600087803b1580156103e857600080fd5b505af11580156103fc573d6000803e3d6000fd5b505050506040513d601f19601f82011682018060405250810190610420919061052b565b507f000000000000000000000000000000000000000000000000000000000000000073ffffffffffffffffffffffffffffffffffffffff1663143ee5b933836040518363ffffffff1660e01b815260040161047c929190610613565b600060405180830381600087803b15801561049657600080fd5b505af11580156104aa573d6000803e3d6000fd5b50505050505050565b7f000000000000000000000000000000000000000000000000000000000000000081565b7f000000000000000000000000000000000000000000000000000000000000000081565b60025481565b60008151905061051081610894565b92915050565b600081359050610525816108ab565b92915050565b60006020828403121561053d57600080fd5b600061054b84828501610501565b91505092915050565b60006020828403121561056657600080fd5b600061057484828501610516565b91505092915050565b6105868161077d565b82525050565b610595816107c5565b82525050565b6105a4816107e9565b82525050565b60006105b7601b836106ad565b91506105c28261086b565b602082019050919050565b6105d6816107bb565b82525050565b60006060820190506105f1600083018661057d565b6105fe602083018561057d565b61060b60408301846105cd565b949350505050565b6000604082019050610628600083018561057d565b61063560208301846105cd565b9392505050565b6000602082019050610651600083018461058c565b92915050565b600060208201905061066c600083018461059b565b92915050565b6000602082019050818103600083015261068b816105aa565b9050919050565b60006020820190506106a760008301846105cd565b92915050565b600082825260208201905092915050565b60006106c9826107bb565b91506106d4836107bb565b9250826106e4576106e361083c565b5b828204905092915050565b60006106fa826107bb565b9150610705836107bb565b9250817fffffffffffffffffffffffffffffffffffffffffffffffffffffffffffffffff048311821515161561073e5761073d61080d565b5b828202905092915050565b6000610754826107bb565b915061075f836107bb565b9250828210156107725761077161080d565b5b828203905092915050565b60006107888261079b565b9050919050565b60008115159050919050565b600073ffffffffffffffffffffffffffffffffffffffff82169050919050565b6000819050919050565b60006107d0826107d7565b9050919050565b60006107e28261079b565b9050919050565b60006107f4826107fb565b9050919050565b60006108068261079b565b9050919050565b7f4e487b7100000000000000000000000000000000000000000000000000000000600052601160045260246000fd5b7f4e487b7100000000000000000000000000000000000000000000000000000000600052601260045260246000fd5b7f416d6f756e742073686f756c6420626967676572207468616e20300000000000600082015250565b61089d8161078f565b81146108a857600080fd5b50565b6108b4816107bb565b81146108bf57600080fd5b5056fea264697066735822122072246121c6fb5d7f69c257fc155ab3773e647959029d8a6a9e9a5d1647aa113b64736f6c63430008030033",
  "linkReferences": {},
  "deployedLinkReferences": {}
}